{
  "_format": "hh-sol-artifact-1",
  "contractName": "SimpleStorage",
  "sourceName": "contracts/SimpleStorage.sol",
  "abi": [
    {
      "inputs": [],
      "stateMutability": "nonpayable",
      "type": "constructor"
    },
    {
      "anonymous": false,
      "inputs": [
        {
          "indexed": false,
          "internalType": "string",
          "name": "newMessage",
          "type": "string"
        }
      ],
      "name": "MessageChanged",
      "type": "event"
    },
    {
      "inputs": [],
      "name": "getMessage",
      "outputs": [
        {
          "internalType": "string",
          "name": "",
          "type": "string"
        }
      ],
      "stateMutability": "view",
      "type": "function"
    },
    {
      "inputs": [],
      "name": "owner",
      "outputs": [
        {
          "internalType": "address",
          "name": "",
          "type": "address"
        }
      ],
      "stateMutability": "view",
      "type": "function"
    },
    {
      "inputs": [
        {
          "internalType": "string",
          "name": "_message",
          "type": "string"
        }
      ],
      "name": "setMessage",
      "outputs": [],
      "stateMutability": "nonpayable",
      "type": "function"
    }
  ],
  "bytecode": "0x60806040523480156200001157600080fd5b506040518060400160405280601281526020017f636861696e6c696e6b20776f726b73686f700000000000000000000000000000815250600090816200005891906200031a565b5033600160006101000a81548173ffffffffffffffffffffffffffffffffffffffff021916908373ffffffffffffffffffffffffffffffffffffffff16021790555062000401565b600081519050919050565b7f4e487b7100000000000000000000000000000000000000000000000000000000600052604160045260246000fd5b7f4e487b7100000000000000000000000000000000000000000000000000000000600052602260045260246000fd5b600060028204905060018216806200012257607f821691505b602082108103620001385762000137620000da565b5b50919050565b60008190508160005260206000209050919050565b60006020601f8301049050919050565b600082821b905092915050565b600060088302620001a27fffffffffffffffffffffffffffffffffffffffffffffffffffffffffffffffff8262000163565b620001ae868362000163565b95508019841693508086168417925050509392505050565b6000819050919050565b6000819050919050565b6000620001fb620001f5620001ef84620001c6565b620001d0565b620001c6565b9050919050565b6000819050919050565b6200021783620001da565b6200022f620002268262000202565b84845462000170565b825550505050565b600090565b6200024662000237565b620002538184846200020c565b505050565b5b818110156200027b576200026f6000826200023c565b60018101905062000259565b5050565b601f821115620002ca5762000294816200013e565b6200029f8462000153565b81016020851015620002af578190505b620002c7620002be8562000153565b83018262000258565b50505b505050565b600082821c905092915050565b6000620002ef60001984600802620002cf565b1980831691505092915050565b60006200030a8383620002dc565b9150826002028217905092915050565b6200032582620000a0565b67ffffffffffffffff811115620003415762000340620000ab565b5b6200034d825462000109565b6200035a8282856200027f565b600060209050601f8311600181146200039257600084156200037d578287015190505b620003898582620002fc565b865550620003f9565b601f198416620003a2866200013e565b60005b82811015620003cc57848901518255600182019150602085019450602081019050620003a5565b86831015620003ec5784890151620003e8601f891682620002dc565b8355505b6001600288020188555050505b505050505050565b61088080620004116000396000f3fe608060405234801561001057600080fd5b50600436106100415760003560e01c8063368b8772146100465780638da5cb5b14610062578063ce6d41de14610080575b600080fd5b610060600480360381019061005b919061038a565b61009e565b005b61006a610178565b6040516100779190610414565b60405180910390f35b61008861019e565b60405161009591906104ae565b60405180910390f35b600160009054906101000a900473ffffffffffffffffffffffffffffffffffffffff1673ffffffffffffffffffffffffffffffffffffffff163373ffffffffffffffffffffffffffffffffffffffff161461012e576040517f08c379a000000000000000000000000000000000000000000000000000000000815260040161012590610542565b60405180910390fd5b806000908161013d9190610778565b507fbb4847942d98bb5bb249692c72ce235605e41502e705831e609875320ef2cac78160405161016d91906104ae565b60405180910390a150565b600160009054906101000a900473ffffffffffffffffffffffffffffffffffffffff1681565b6060600080546101ad90610591565b80601f01602080910402602001604051908101604052809291908181526020018280546101d990610591565b80156102265780601f106101fb57610100808354040283529160200191610226565b820191906000526020600020905b81548152906001019060200180831161020957829003601f168201915b5050505050905090565b6000604051905090565b600080fd5b600080fd5b600080fd5b600080fd5b6000601f19601f8301169050919050565b7f4e487b7100000000000000000000000000000000000000000000000000000000600052604160045260246000fd5b6102978261024e565b810181811067ffffffffffffffff821117156102b6576102b561025f565b5b80604052505050565b60006102c9610230565b90506102d5828261028e565b919050565b600067ffffffffffffffff8211156102f5576102f461025f565b5b6102fe8261024e565b9050602081019050919050565b82818337600083830152505050565b600061032d610328846102da565b6102bf565b90508281526020810184848401111561034957610348610249565b5b61035484828561030b565b509392505050565b600082601f83011261037157610370610244565b5b813561038184826020860161031a565b91505092915050565b6000602082840312156103a05761039f61023a565b5b600082013567ffffffffffffffff8111156103be576103bd61023f565b5b6103ca8482850161035c565b91505092915050565b600073ffffffffffffffffffffffffffffffffffffffff82169050919050565b60006103fe826103d3565b9050919050565b61040e816103f3565b82525050565b60006020820190506104296000830184610405565b92915050565b600081519050919050565b600082825260208201905092915050565b60005b8381101561046957808201518184015260208101905061044e565b60008484015250505050565b60006104808261042f565b61048a818561043a565b935061049a81856020860161044b565b6104a38161024e565b840191505092915050565b600060208201905081810360008301526104c88184610475565b905092915050565b7f4f6e6c79206f776e65722063616e2063616c6c20746869732066756e6374696f60008201527f6e00000000000000000000000000000000000000000000000000000000000000602082015250565b600061052c60218361043a565b9150610537826104d0565b604082019050919050565b6000602082019050818103600083015261055b8161051f565b9050919050565b7f4e487b7100000000000000000000000000000000000000000000000000000000600052602260045260246000fd5b600060028204905060018216806105a957607f821691505b6020821081036105bc576105bb610562565b5b50919050565b60008190508160005260206000209050919050565b60006020601f8301049050919050565b600082821b905092915050565b6000600883026106247fffffffffffffffffffffffffffffffffffffffffffffffffffffffffffffffff826105e7565b61062e86836105e7565b95508019841693508086168417925050509392505050565b6000819050919050565b6000819050919050565b600061067561067061066b84610646565b610650565b610646565b9050919050565b6000819050919050565b61068f8361065a565b6106a361069b8261067c565b8484546105f4565b825550505050565b600090565b6106b86106ab565b6106c3818484610686565b505050565b5b818110156106e7576106dc6000826106b0565b6001810190506106c9565b5050565b601f82111561072c576106fd816105c2565b610706846105d7565b81016020851015610715578190505b610729610721856105d7565b8301826106c8565b50505b505050565b600082821c905092915050565b600061074f60001984600802610731565b1980831691505092915050565b6000610768838361073e565b9150826002028217905092915050565b6107818261042f565b67ffffffffffffffff81111561079a5761079961025f565b5b6107a48254610591565b6107af8282856106eb565b600060209050601f8311600181146107e257600084156107d0578287015190505b6107da858261075c565b865550610842565b601f1984166107f0866105c2565b60005b82811015610818578489015182556001820191506020850194506020810190506107f3565b868310156108355784890151610831601f89168261073e565b8355505b6001600288020188555050505b50505050505056fea2646970667358221220919760d1152780350a43c1a4908244033cd28b128f6aa6abf5493419f5c63fb764736f6c63430008180033",
  "linkReferences": {},
  "deployedLinkReferences": {}
}